:100000000C942A000C943F000C943F000C943F0089
:100010000C943F000C943F000C943F000C943F0064
:100020000C943F000C943F000C943F000C943F0054
:100030000C943F000C943F000C943F000C943F0044
:100040000C943F000C943F000C943F000C943F0034
:100050000C943F0011241FBECFE5D8E0DEBFCDBF1A
:1000600010E0A0E6B0E0ECEEF1E002C005900D92E9
:10007000AC37B107D9F70E94D4000C94F4000C946B
:10008000000080FF02C0C49A01C0C49881FF02C072
:10009000C59A01C0C59882FF02C0C69A01C0C69821
:1000A00083FF02C0C79A0895C79808951F93182F19
:1000B000C39A82958F700E944100C398C39A812F82
:1000C0000E944100C39880E18A95F1F71F9108953D
:1000D000C2980E9456000895C29A0E945600089540
:1000E000CF93DF93EC0103C021960E946C008881BE
:1000F0008823D1F7DF91CF9108956295660F660F3F
:10010000607C680F862F80680E946800089581E0F7
:100110000E94680084EF91E00197F1F7089582E072
:100120000E94680084EF91E00197F1F708951F9312
:10013000CF93DF93BC9ABD9ABE9ABF9ABB9ABA9AE4
:1001400086EA9EE00197F1F7C298C39810E0C2EEEC
:10015000D4E0C39A83E00E944100C398CE01019786
:10016000F1F71F5F1330A9F7C39A82E00E944100A4
:10017000C3988AEF90E00197F1F788E20E94680047
:1001800088E00E94680081E00E94680084EF91E0AE
:100190000197F1F786E00E9468008CE00E946800F9
:1001A000DF91CF911F910895CF93DF930E94970025
:1001B000C9E1D0E00E94870082E060E00E947D00FB
:1001C00080E690E00E94700081E061E00E947D0086
:1001D0008CE690E00E94700088E893E1FE01319780
:0C01E000F1F70197D9F7E6CFF894FFCFB4
:1001EC00616C61206D61206B6F746100506F7A647B
:0C01FC0072617769616D79203B29000079
:00000001FF
