:100000000C942A000C9434000C9434000C943400AA
:100010000C9434000C9434000C9434000C94340090
:100020000C9434000C9434000C9434000C94340080
:100030000C9434000C9434000C9434000C94340070
:100040000C9434000C9434000C9434000C94340060
:100050000C94340011241FBECFE5D8E0DEBFCDBF25
:100060000E9436000C944A000C940000D79A12BEED
:1000700085E083BF80E091E001C081E008B600FC2C
:10008000FDCF12BE98BF8130C1F78BB380588BBBB8
:0800900080E0F4CFF894FFCFEB
:00000001FF
